S01800006275696C642F6D6963617A2F6D61696E2E73726563E5
S11300000C9465010C942D0B0C94370B0C94410B40
S11300100C944B0B0C94550B0C945F0B0C94C20D6D
S11300200C94690B0C9484010C9484010C94751148
S11300300C942E200C94F70A0C940D0B0C94F00BDA
S11300400C94E60A0C943E150C94E4080C94840178
S11300500C9460090C94730B0C9484010C9484012B
S11300600C94020B0C94B30A0C94920A0C949D0AFF
S11300700C94A80A0C94C60A0C94750A0C94840176
S11300800C94870A0C9484010C948401D015B7163F
S1130090F616F816FB16031725175817C715D517A4
S11300A0EF1745184B189C18B818BE18F818B31950
S11300B0D619EA19081C311C611C641C6D1CC71C70
S11300C0871DA61D00002110422063308440A550E6
S11300D0C660E770088129914AA16BB18CC1ADD18A
S11300E0CEE1EFF13112100273325222B552944232
S11300F0F772D662399318837BB35AA3BDD39CC3DA
S1130100FFF3DEE36224433420040114E664C7747D
S1130110A44485546AA54BB528850995EEE5CFF529
S1130120ACC58DD55336722611163006D776F666D1
S11301309556B4465BB77AA719973887DFF7FEE779
S11301409DD7BCC7C448E5588668A778400861189D
S113015002282338CCC9EDD98EE9AFF948896999C9
S11301600AA92BB9F55AD44AB77A966A711A500A71
S1130170333A122AFDDBDCCBBFFB9EEB799B588B19
S11301803BBB1AABA66C877CE44CC55C222C033CBD
S1130190600C411CAEED8FFDECCDCDDD2AAD0BBD69
S11301A0688D499D977EB66ED55EF44E133E322E11
S11301B0511E700E9FFFBEEFDDDFFCCF1BBF3AAFB9
S11301C0599F788F8891A981CAB1EBA10CD12DC117
S11301D04EF16FE18010A100C230E32004502540AD
S11301E046706760B9839893FBA3DAB33DC31CD30D
S11301F07FE35EF3B1029012F322D23235421452FD
S113020077625672EAB5CBA5A89589856EF54FE558
S11302102CD50DC5E234C324A0148104667447644C
S113022024540544DBA7FAB79987B8975FE77EF7AC
S11302301DC73CD7D326F2369106B016576676769C
S1130240154634564CD96DC90EF92FE9C899E98978
S11302508AB9ABA94458654806782768C018E108EC
S11302608238A3287DCB5CDB3FEB1EFBF98BD89B4C
S1130270BBAB9ABB754A545A376A167AF10AD01A3C
S1130280B32A923A2EFD0FED6CDD4DCDAABD8BAD98
S1130290E89DC98D267C076C645C454CA23C832C8C
S11302A0E01CC10C1FEF3EFF5DCF7CDF9BAFBABFEC
S11302B0D98FF89F176E367E554E745E932EB23EDC
S11302C0D10EF01E00081C18141011241FBECFEF0D
S11302D0D0E1DEBFCDBF11E0A0E0B1E0EAEFF5E48C
S11302E000E00BBF02C007900D92A631B107D9F709
S11302F013E0A6E1B1E001C01D92A735B107E1F713
S11303000E94F81D0C94FC220C9400008FB7F89402
S1130310992708958FBF0895282F9FB7F894E82F41
S1130320FF27E25AFE4F80818F3F81F4E091510311
S1130330E21771F40BC020933E0304C0FF27E25A76
S1130340FE4F20832093510320E007C025E005C021
S113035080913E038F3F91F7EECF892F99278FBF6E
S1130360822F99270895EF920F931F93AE2D99E052
S1130370899FF0011124E75CFD4F40835183628320
S113038073830483158326833783A17080858E7FCE
S11303908A2B8260808787E00E948C011F910F91D5
S11303A0EF9008957FB7F89462B72091440130919B
S11303B04501409146015091470106B601FE0FC028
S11303C081B792B7280F311D411D511D2F5F3F4F3B
S11303D04F4F5F4F290F311D411D511D04C0260F82
S11303E0311D411D511D872F99278FBFCA01B901A6
S11303F00895982F969596959695ECE5F1E0E90F7A
S1130400F11D877021E030E002C0220F331F8A956E
S1130410E2F780818223992708951F93CF93DF9376
S113042080913B01882319F081E090E053C08FB79D
S1130430F894282F3327122F80913E01882349F501
S113044081E080933E01109292012FBF8FB7F89400
S11304509927379A8FBF8FB7F894C82FDD279C2F21
S113046080911501813099F480913E01813021F40D
S11304708AE10E948C0109C0823049F48091920182
S11304808093150183E080933E01CFBF21C09FBFBD
S11304901FC080919201882311F42FBF19C080E0FE
S11304A00E94F901882319F085E090E007C080914B
S11304B05C01816080935C0180E090E01FBF282F85
S11304C0882319F481E080933B01822F992702C08D
S11304D020E0F8CFDF91CF911F910895982F969542
S11304E096959695E8E3F2E0E90FF11D877021E017
S11304F030E002C0220F331F8A95E2F78081822305
S113050099270895FC0182819927582F44278181D6
S11305109927482B592BCA01892F992786958695A7
S1130520837090708230910559F08330910559F0B1
S1130530892B19F420E030E008C02CE93FEF05C016
S113054022E030E002C028E030E0CA0184E0989F55
S1130550812D992711248230910559F0833091051A
S113056059F0892B19F480E090E008C08CE99FEFE2
S113057005C082E090E002C088E090E0280F391FB7
S11305802A5F3F4FCF01820F931F0895282F9FB7F3
S1130590F894662349F0E82FFF27E753FD4F808145
S11305A0882311F021E006C0E22FFF27E753FD4F17
S11305B0608320E0892F99278FBF822F9927089580
S11305C0E82F8FB7F894282F332790E0FF27E753BD
S11305D0FD4F8081861709F491E02FBF892F992759
S11305E00895882311F06E9A08956E9808958823CB
S11305F011F06F9A08956F98089580E00E94F102B7
S1130600BA9ABB98B99AB89A6C9A80E00E94F70299
S11306106B986A9881E00E94F102709A8DB18C7F88
S11306208DB908950F931F93CF93DF93182F8FB72E
S1130630F894C82FDD270C2F61E080E00E94C602E9
S1130640882321F0CFBF85E090E024C080910D0184
S11306508823A1F480913001823081F409C082E0C2
S11306608093300110920D010E94FD02B89AC09847
S113067010930A0180E00FBF99270CC080913001CC
S1130680882369F38FB7F89499271092C9028FBF12
S113069081E0F1CFDF91CF911F910F9108951F93C6
S11306A0182F81E00E94F1021FB9779BFECF8FB112
S11306B099271F9108958F929F92AF92BF92CF92E4
S11306C0DF92EF92FF920F931F93CF93DF938FB735
S11306D0F8949927C0904903D0904A038090BC02B3
S11306E09090BD02C0912D02D0912E022091410123
S11306F030914201EAE0AE2EB12CAC0EBD1E2A159B
S11307003B0508F459018FBF7401EC0EFD1E8601F0
S11307100C0F1D1F14C0C114D10419F0F8018081FD
S113072001C080E00E944F038114910411F0F7018D
S1130730808321960894E11CF11C0F5F1F4FC501B3
S11307400197C817D90738F381E00E94F7029FB7D1
S1130750F894C114D10431F0CC0EDD1EF601808171
S11307608FB901C01FB8D0932E02C0932D02892FD8
S113077099278FBF80E090E0DF91CF911F910F9177
S1130780FF90EF90DF90CF90BF90AF909F908F90AD
S113079008952FB7F89433275093420140934101B1
S11307A090934A03809349037093BD026093BC0203
S11307B010922E0210922D022FBF452B29F08FB1DB
S11307C00E945B039927089581E10E948C0180E0D7
S11307D090E008958FB7F89499271092CB028FBFB9
S11307E0089580914203882319F02FE170E002C03C
S11307F078E021E0622FEFB7F894809183018E7F37
S11308008093830187B1982F9F71829586958695F1
S1130810837019F080E090E012C0822F88508631F6
S113082018F081E090E00BC040E050E03327892FBE
S113083099272817390711F441E050E0CA01982F8D
S11308409170990F809183018178262F2F71422F07
S1130850440F440F892B842B80938301332727B9BA
S1130860783059F580913F039091400321E0863818
S1130870920718F087E090E01FC0833C910518F0C0
S113088086E090E019C08136910518F085E090E08B
S113089013C08033910518F084E090E00DC08831D6
S11308A0910518F083E090E007C00C9718F082E0FF
S11308B090E002C080E090E0782F7770887D872BED
S11308C0886D992786B98E2F99278FBF08951F9316
S11308D01FB7F89480914D03882339F40E948C014A
S11308E0882319F481E080934D03812F99278FBFCA
S11308F01F91089580E880935A0110928A01109202
S1130900430310923D03109285010895CF93DF9322
S1130910FC0115A6DC019E96ED011B821A82198248
S113092080E886A7DF91CF9108952F923F924F924E
S11309305F926F927F928F929F92AF92BF92CF926B
S1130940DF92EF92FF920F931F93CF93DF93CDB774
S1130950DEB728970FB6F894DEBF0FBECDBF209048
S1130960CA013090CB014090CC015090CD01662457
S113097077248824BEE4AB2EA3E8BA2ECC24DD244D
S1130980EE24FF2400E010E0222D332D442D552DBC
S1130990662D772D882D90E00E94BC2029833A8310
S11309A04B835C836D837E838F839887822E932E03
S11309B0A42EB52E2401350100E20E94BA21A22EF4
S11309C0B32EC42ED52EC301B20196958795779583
S11309D067956A0D7B1D8C1D9D1D97FF05C09F7734
S11309E06F5F7F4F8F4F9F4F6093CA017093CB010E
S11309F08093CC019093CD0128960FB6F894DEBF76
S1130A000FBECDBFDF91CF911F910F91FF90EF905B
S1130A10DF90CF90BF90AF909F908F907F906F901A
S1130A205F904F903F902F9008958FB7F894609106
S1130A30D0017091D1012CB53DB506B602FE04C0BB
S1130A406F5F7F4F2CB53DB599278FBF88279927B6
S1130A50CB017727662744275527622B732B842BDA
S1130A60952B0895EF92FF920F931F930E94150503
S1130A707B018C012091D9013091DA014091DB0195
S1130A805091DC018091D3019091D401A091D501C2
S1130A90B091D601820F931FA41FB51FE216F3066F
S1130AA00407150730F082179307A407B50758F019
S1130AB005C082179307A407B507E0F5E816F90601
S1130AC00A071B07B8F59C01AD012E193F09400B1D
S1130AD0510B213060E8360760E0460760E05607B6
S1130AE068F180E090E8A0E0B0E0E80EF91E0A1F8B
S1130AF01B1FE092D901F092DA010093DB011093FD
S1130B00DC0180E090E8AFEFBFEFE80EF91E0A1FAA
S1130B101B1F20503048404050402093D301309355
S1130B20D4014093D5015093D60120E030E840E051
S1130B3050E014C020E030E040E050E08093D90160
S1130B409093DA01A093DB01B093DC011092D301FE
S1130B501092D4011092D5011092D601A901B701C7
S1130B602CB53DB5C9018E199F09039684179507C5
S1130B7020F0B9016D5F7F4F02C0640F751F6115CE
S1130B80710511F461E070E0615070407BBD6ABD95
S1130B9080E186BF87B7806187BF1F910F91FF9067
S1130BA0EF9008950F931F930FB7F8941127609354
S1130BB0D9017093DA018093DB019093DC012093D7
S1130BC0D3013093D4014093D5015093D6010E94B0
S1130BD032050FBF1F910F91089597B79F7D97BF5F
S1130BE090E296BF882319F08EB5806402C08EB55A
S1130BF08F7B8EBD87B7806287BF80E090E00895C9
S1130C00DF92EF92FF920F931F938FB7F894282FE0
S1130C103327D22E91B782B746B7981711F041FF08
S1130C2002C02FBF6AC0809124028823E1F10E9490
S1130C30D201E090C502F090C6020091C702109163
S1130C40C8022091560130915701409158015091AA
S1130C5059016E197F09800B910B62177307840782
S1130C60950720F01092240271E01EC02E0D3F1D46
S1130C70401F511F8091440190914501A09146016C
S1130C80B0914701281B390B4A0B5B0B273E3105FA
S1130C904105510540F4822F223010F070E005C068
S1130CA070E082E002C070E086EE682F615000B60A
S1130CB001FCFDCF82B7681709F46F5F20914401EE
S1130CC0309145014091460150914701DA01C90133
S1130CD00196A11DB11D860F911DA11DB11D821785
S1130CE09307A407B50710F4622F609561BFDFBEB8
S1130CF0772319F086E00E948C011F910F91FF90D9
S1130D00EF90DF900895AFB7F894BB27E1E0E0934C
S1130D1024026093C5027093C6028093C702909325
S1130D20C8022093560130935701409358015093C1
S1130D305901AFBF0E94000608958091C1028A3014
S1130D4021F480918B01843021F081E0809319019A
S1130D50089582E00E948C011092190108952FB722
S1130D60F89433278CB95E9A2FBF0895FC0161155E
S1130D70710519F481E090E008958091E10190916A
S1130D80E201892B19F085E090E008957093E30265
S1130D906093E202F093E201E093E10110928D018D
S1130DA010928C0181E080938E015E9A569A808124
S1130DB021E030E030938D0120938C010E94AF0636
S1130DC080E090E008958FB7F894992720912A0144
S1130DD02E7F20932A012EE720937D018FBF61E0AF
S1130DE070E08DE791E00E94B60699270895AF92CE
S1130DF0BF92CF92DF92EF92FF920F931F93CF9304
S1130E00DF93CDB7DEB728970FB6F894DEBF0FBED9
S1130E10CDBF20E070E0E0910001F091010132E1EA
S1130E204DE65CE46FE4809101019E2F28960FB695
S1130E30F894DEBF0FBECDBFDF91CF911F910F910C
S1130E40FF90EF90DF90CF90BF90AF900895E4ECC7
S1130E50F0E06927660FF11DE60FF11DC895982F84
S1130E60802D3196C89590250895982F809125015D
S1130E70882389F5992379F531E030932501809110
S1130E8002018093260120911A01822F81708093A0
S1130E905B01809107019091080190932801809350
S1130EA0270180911B018093290132273170267E0E
S1130EB0E32FFF27EE0FFF1FED5FFE4F808191812F
S1130EC09093080180930701232B20931A0185E056
S1130ED00E948C01089580911A0180FF02C08B7FCB
S1130EE001C08D7F80931A0108950F931F93082FDB
S1130EF0162F80918B018130D9F0813038F0823007
S1130F0009F44AC0833009F028C159C0002309F408
S1130F1058C11092DC021092DB021092C3021092AC
S1130F20E40210928F01109234021092330239C1FC
S1130F30002309F046C180913302909134020E944B
S1130F402707909334028093330282E080938B01CD
S1130F501093E402143409F000C125C186958695E6
S1130F6003C080911A018695817009F0F6C08091C2
S1130F701A01992311F0846001C0826080931A01E0
S1130F8080911A01877E886080931A0110921B0158
S1130F908FEF8093020115C1002309F0DEC0609336
S1130FA08F0180913302909134020E94270790931D
S1130FB034028093330283E080938B0102C18091D9
S1130FC0C3028F3F09F4C9C0002309F461C0823011
S1130FD008F4C3C0E091DB02EE2309F4EBC04E2F0A
S1130FE04150E42FFF27E552FD4F82819927382F86
S1130FF02227442311F4E2E002C0E42FE150FF274A
S1131000E552FD4F82819927282B392B8091330299
S1131010909134022817390709F09FC080E00E949C
S1131020350730918F018091250220912602982F57
S11310309F5F963008F090E0921771F0E82FFF2739
S1131040EB5DFD4F32838F5F80932502863010F075
S1131050109225020E9467041092DC021092DB02B7
S113106094E090938B011092C3021092E4021092C8
S11310708F01109234021092330280912A018D7FE5
S113108080932A0180911901882309F49AC084C0AD
S1131090823008F44EC0E091DC02FF27E552FD4F98
S11310A08281482F5527342F20911A01822F86954B
S11310B086958695837099278130910519F002975A
S11310C0F9F40EC0277E206120931A01442311F401
S11310D085E001C080E080931B013093020110C0C1
S11310E080911B01843360F4E0910701F0910801C1
S11310F0E80FF11D408380911B018F5F80931B01DA
S11311008091DC02E82FFF27E552FD4F62818F5F5B
S11311108093DC02833010F01092DC0277278091F8
S11311203302909134020E942707909334028093F3
S113113033028091DB02E82FFF27E552FD4F128333
S11311408F5F8093DB02833010F01092DB0280917A
S1131150C3028F5F8093C30234C01092DC021092EA
S1131160DB0214E010938B011092C3021092E4028C
S113117010928F01109234021092330280912A014E
S11311808D7F80932A0181E00E94350780911901A7
S1131190882329F010938B010E949D0612C000231E
S11311A081F081E009CF80911A01982F917080FD20
S11311B0D5CED7CE8091DF029927382F222742E05F
S11311C01CCF1F910F9108951F920F920FB60F928B
S11311D011242F933F934F935F936F937F938F9338
S11311E09F93AF93BF93EF93FF935F9B3DC06CB10D
S11311F0E0913502F09136023097F9F080914B037B
S113120090914C03E80FF91F6083019690934C036F
S113121080934B0320915503309156038217930713
S113122018F110923602109235028091BE0283307A
S1131230D9F057981092BE0217C06E3719F460E0C7
S113124081E010C080912A016D3721F4826080937F
S11312502A010AC081FF05C08D7F80932A0180E2A4
S1131260682780E00E947507FF91EF91BF91AF91CD
S11312709F918F917F916F915F914F913F912F91AA
S11312800F900FBE0F901F901895982F8D57823096
S113129068F480912A01816080932A0180E2892781
S11312A08093C2028DE780937D0102C090937D01FB
S11312B061E070E08DE791E00E94B60699270895F9
S11312C078941F920F920FB60F921124FF920F93EE
S11312D01F932F933F934F935F936F937F938F93BA
S11312E09F93AF93BF93CF93DF93EF93FF9320919B
S11312F08C0130918D018091E2029091E3022817D4
S1131300390780F4E091E101F091E201E20FF31F6B
S113131080812F5F3F4F30938D0120938C010E9479
S1131320AF06CDC01092E2011092E10110928E013D
S11313305698FFB6F89480912A0180FF0EC08E7FE4
S113134080932A018091C20280937D0161E070E064
S11313508DE791E00E94B606AFC08091C10284304F
S113136009F48CC0853040F4823021F18330B8F523
S1131370813009F09CC00DC0863009F48DC08630E0
S113138008F483C0873009F48EC0883009F08FC018
S113139091C08091D8010E944509082F83E0809371
S11313A0C1026091D80180915303909154030E942B
S11313B0270710C0809141030E944509082F83E04C
S11313C08093C1026091410380915303909154032F
S11313D00E942707909354038093530366C0E091BF
S11313E03702FF27EE0FFF1FE45EFD4F80810E944E
S11313F04509082F10913702C12FDD27FE01EE0F9A
S1131400FF1FE45EFD4F608180915303909154036C
S11314100E94270790935403809353032091D20191
S11314202F5F2093D201113039F580912101E09191
S11314301C01F0911D01E80FF11DE0818F5F809385
S1131440210190912001981730F482E080931D02CD
S113145040E050E002C04E2F5527DE01AA0FBB1F0B
S1131460FD01E55EFD4F8081823031F02F3F21F098
S1131470A45EBD4F4C9319C084E012C08091530305
S11314800E944509082F85E00BC0809154030E94F7
S11314904509082F86E004C00E94E306082F87E070
S11314A08093C10202C088E003C0002329F089E0D0
S11314B08093C1020E9467048F2D99278FBFFF91EB
S11314C0EF91DF91CF91BF91AF919F918F917F91D8
S11314D06F915F914F913F912F911F910F91FF90C9
S11314E00F900FBE0F901F9018951F920F920FB67A
S11314F00F9211248F9380919B0087FF02C08091EB
S11315009C008F910F900FBE0F901F9018957894A8
S11315101F920F920FB60F9211240F900FBE0F90CF
S11315201F90189578941F920F920FB60F92112462
S11315300F900FBE0F901F90189578941F920F92E2
S11315400FB60F9211240F900FBE0F901F90189595
S113155078941F920F920FB60F9211240F900FBE22
S11315600F901F90189578941F920F920FB60F92B8
S113157011248F939F9380918000909181009F917B
S11315808F910F900FBE0F901F90189578941F9213
S11315900F920FB60F9211242F933F938F939F9323
S11315A02FB7F8943327809131029091320201963B
S11315B090933202809331022FBF9F918F913F917C
S11315C02F910F900FBE0F901F9018951F920F929E
S11315D00FB60F9211248F9383B783BF00B600FC1C
S11315E0FDCF8F910F900FBE0F901F901895789498
S11315F01F920F920FB60F9211240F900FBE0F90EF
S11316001F90189578941F920F920FB60F92112481
S11316100F900FBE0F901F90189578941F920F9201
S11316200FB60F9211242F933F938F939F932FB74D
S1131630F89433278091D0019091D1010196909331
S1131640D1018093D0012FBF9F918F913F912F9112
S11316500F900FBE0F901F9018951F920F920FB608
S11316600F9211240F900FBE0F901F9018951F9288
S11316700F920FB60F9211240F900FBE0F901F9070
S113168018951F920F920FB60F9211240F900FBE50
S11316900F901F9018951F920F920FB60F9211245E
S11316A00F900FBE0F901F9018951F920F920FB6B8
S11316B00F9211240F900FBE0F901F9018951F9238
S11316C00F920FB60F9211240F900FBE0F901F9020
S11316D018951F920F920FB60F9211240F900FBE00
S11316E00F901F9018951F920F920FB60F9211240E
S11316F02F933F934F935F936F937F938F939F9316
S1131700AF93BF93EF93FF9344B155B178948FB7E0
S1131710F894992720918301322F369531702170E6
S11317208FBF222331F5339880911F02813021F03D
S1131730823009F044C008C0332341F05093C00202
S11317404093BF028BE112C0332319F40E94F103CA
S113175036C010921F0280914203882381F51092B3
S1131760CE0150937F0140937E0189E10E948C0158
S113177026C08FB7F89499278FBF2FB7F8943327D3
S113178086B1582F5770482F4072987D942B952B13
S11317908074977B982B90619F77892F992786B9BE
S11317A0887D842B852B87738061992786B9887DF2
S11317B0842B852B877B8069992786B92FBFFF915E
S11317C0EF91BF91AF919F918F917F916F915F91B5
S11317D04F913F912F910F900FBE0F901F9018952E
S11317E01F920F920FB60F9211242F933F934F9392
S11317F05F936F937F938F939F93AF93BF93EF9375
S1131800FF9383B783BF00B600FCFDCF81B7992750
S11318100196AA27BB2720914401309145014091AC
S1131820460150914701280F391F4A1F5B1F20931F
S11318304401309345014093460150934701789405
S11318400E940006FF91EF91BF91AF919F918F91FC
S11318507F916F915F914F913F912F910F900FBEA8
S11318600F901F901895AF92BF92CF92DF92EF9294
S1131870FF920F931F93CF93DF935B016C01C0E042
S1131880D0E0E9E3F2E0608561FF8BC02081318123
S113189042815381E480F58006811781D601C50118
S11318A0821B930BA40BB50B8E159F05A007B107E4
S11318B008F477C060FF03C06D7F608708C02E0DF9
S11318C03F1D401F511F2083318342835383CC2308
S11318D021F0C23009F06BC029C08FB7F894082FEB
S11318E0112780913801882389F491E0909338017D
S11318F01092D7020FBF80913901882321F486E129
S11319000E948C0154C090933A0151C08091D70237
S1131910882309F438C080E00E946E02882399F578
S1131920809138028160809338022DC09FB7F8946B
S113193020913801222319F421E030E00FC0809176
S11319401401813019F020E030E008C040E050E09C
S11319502150223010F441E050E09A01892F992758
S11319608FBF222321F18FB7F894082F1127902FCE
S113197080911401813099F480913801813029F4E7
S113198085E10E948C010FBF12C0823041F4809126
S1131990D7028093140183E080933801F4CF9FBF72
S11319A006C021963996C330D10509F06CCF87E083
S11319B00E948C01DF91CF911F910F91FF90EF90C6
S11319C0DF90CF90BF90AF9008950F931F93182F7F
S11319D00FB7F89461E080E00E94C602882371F595
S11319E010930A0180910D018823A9F5809130019B
S11319F0823089F580E10CC00E94FD0280913001A3
S1131A00882349F481E0809330011092860182E1B9
S1131A100E948C012AC08091D7018F3F31F5E0915B
S1131A200C01EE2311F11CC010920B0104C0FF271E
S1131A30E952FE4F108210920C0117C081E090E031
S1131A4002C0880F991F1A95E2F720912F01282BC5
S1131A5020932F010AC0809130018823E1F6CCCF76
S1131A6080910B018F3F19F7DFCF802F99278FBF0C
S1131A7080E090E01F910F9108951F9383E00E94EE
S1131A8012039927182F882319F083E00E94E50C8C
S1131A90812F99271F9108951F93CF93DF93182FB8
S1131AA08FB7F894C82FDD2760E080E00E94E00241
S1131AB0882321F0CFBF80E090E005C0CFBF812F05
S1131AC00E944F039927DF91CF911F910895EF92C0
S1131AD0FF920F931F93CF93DF93182F7B01042F53
S1131AE08FB7F894C82FDD2760E080E00E94E00201
S1131AF0882321F0CFBF80E090E014C0CFBF1064F2
S1131B00812F99279093E4018093E3010E944F036E
S1131B10182F402F5527B70180E090E00E94C90399
S1131B20812F9927DF91CF911F910F91FF90EF9013
S1131B300895C09860913F017091400141E08FE3A6
S1131B400E94670D089582E090E090937B0180935A
S1131B507A0181E080938A0120E030E080910A01DB
S1131B60843011F421E030E0232B29F484E00E9436
S1131B701203882319F40E94990D089584E00E94A9
S1131B80E50C08951F920F920FB60F9211242F9314
S1131B903F934F935F936F937F938F939F93AF93F1
S1131BA0BF93EF93FF9380917A0190917B0101970A
S1131BB049F482E090E090937B0180937A010E9443
S1131BC0A30D05C0809185018F5F80938501FF91EE
S1131BD0EF91BF91AF919F918F917F916F915F91A1
S1131BE04F913F912F910F900FBE0F901F9018951A
S1131BF0CF92DF92EF92FF920F931F93CF93DF93D5
S1131C008C01F62E6A01E22E8FB7F894C82FDD27D7
S1131C1060E080E00E94E002882321F0CFBF80E0F2
S1131C2090E01EC0CFBF0F0D111D802F80680E9451
S1131C304F03F82E16950795802F807C0E944F0342
S1131C400E2D0AC0EE2DFF27E01BF109EC0DFD1D42
S1131C5080810E944F0301500023A1F78F2D992703
S1131C60DF91CF911F910F91FF90EF90DF90CF9074
S1131C700895CF93DF93CDB7DEB72C970FB6F894C2
S1131C80DEBF0FBECDBF8FB7F894282FAE014F5FD4
S1131C905F4FDA01EFECF2E088E001900D928150A1
S1131CA0E1F780919001909191018987892F99277B
S1131CB08A878091DD019091DE018B87892F992796
S1131CC08C872FBF2CE060E080E691E00E94F80D45
S1131CD02C960FB6F894DEBF0FBECDBFDF91CF9127
S1131CE008951F9380912F01882309F04BC0109110
S1131CF00A011F3F09F046C060E00E94E002882309
S1131D0009F440C081E08093D90280915D01882369
S1131D10E1F11092D90285E090E045C0923069F576
S1131D20C09A80910B0120E030E08F3F11F421E054
S1131D3030E0232BE9F410930D018F3F19F42FEFBA
S1131D4030E00DC0282F3327F901E952FE4F80817E
S1131D5080930B018F3F11F410930C011083209397
S1131D60860181E08093300182E10E948C0105C0EC
S1131D7010930D011092300111C08091300188231D
S1131D8069F00FC081E090E00EC080910D01909148
S1131D903001882319F2923021F0EFCF80E00E94C5
S1131DA0F10280E090E01F9108951F93182F81E0C5
S1131DB090E0909332018093310110925D010E9472
S1131DC0710E8FB7F894992710932B018FBF8CE075
S1131DD00E948C011F9108951F93CF93DF939FB7A7
S1131DE0F894C92FDD271C2F90910A01981721F030
S1131DF0CFBF81E090E03AC08FEF80930A01309129
S1131E002F013323F1F48FB7F89499271092C90264
S1131E108FBF0E94710ECFBF11C020930A0181E0D1
S1131E2090E002C0880F991F4A95E2F78095382305
S1131E3030932F0180E10E948C011FBF80E090E06D
S1131E4015C080E065E0E32FFF270E943D22292F83
S1131E50492F5527CF01042E02C0959587950A94E2
S1131E60E2F780FDDACF822F8F5FEFCFDF91CF9142
S1131E701F9108951F93CF93DF938FB7F894C82FC2
S1131E80DD271C2F80917A0190917B01892B29F405
S1131E9084E00E94EC0ECFBF1EC010928A01809194
S1131EA08501882311F0B79904C00E9908C08823CE
S1131EB019F08150809385010E94A30D0BC081E02D
S1131EC090E090937B0180937A011092850184E0E5
S1131ED00E94EC0E1FBFDF91CF911F9108950E94C5
S1131EE07A04C09AC09888E00E944C0D88E00E9451
S1131EF04C0DC09A84E00E94EC0E0E943A0F0895A3
S1131F00FF920F931F93CF93DF93F82E8B018FB71C
S1131F10F894C82FDD2760E080E00E94E002882367
S1131F2021F0CFBF80E090E00CC0CFBF8F2D0E9486
S1131F304F03812F99270E944F03802F0E944F0344
S1131F409927DF91CF911F910F91FF9008951F93CF
S1131F501FB7F89480918401882319F460E070E03D
S1131F6009C060E080914803882309F461E081E0BE
S1131F706827772780919301882319F480E090E003
S1131F800AC090E08091CE02882309F491E081E0B8
S1131F909827892F9927762F6627770F770F770F42
S1131FA0E4E0880F991FEA95E1F7826E9262682B4C
S1131FB0792B81E10E94800F812F99278FBF1F9178
S1131FC008958FB7F89499276091D8028FBF85E060
S1131FD0689FB0011124625D7E4F706488E10E94A5
S1131FE0800F0895EF92FF921F93CF93DF93E090B9
S1131FF09401F0909501F70182A59927182F882361
S113200009F41FE1C09880918201811749F0612F82
S113201077276F717070606E706885E10E94800F21
S113202010938201F70110818FB7F894C82FDD2730
S113203060E080E00E94E002882311F0CFBF12C06C
S1132040CFBF8EE390E09093E4018093E3018EE3AD
S11320500E944F031150412F552760E070E0C701E3
S11320600E94C903DF91CF911F91FF90EF900895D3
S11320700F931F93CF93DF93EC010FB7F8941127BD
S11320800E948202FC018FE380830FBF10924603FB
S11320901092450361E082E00E94C602882319F091
S11320A085E090E072C08091DA028F5F8093DA025B
S11320B081508B838FB7F894082F112762E081E059
S11320C00E94E002882329F40FBF0E94EA0381E002
S11320D05BC08FB7F894992724E02093CA028FBF7E
S11320E0D0932302C09322020FBFFE013196818157
S11320F029819927982F88273327822B932B807245
S11321009C7C8983892F992781832981982F88270B
S113211033272164822B932B8983892F99278183E9
S11321201CA618A619A619AA18AA1FA680E88EA785
S113213061E06093CD0240912202509123028FB757
S1132140F894282F332780913101909132018830FF
S1132150910511F0019711F02FBF15C082E090E0B6
S1132160909332018093310160935203509395010F
S113217040939401109243012FBF0E943D0D882388
S113218011F40E94F20F80E09927DF91CF911F9103
S11321900F910895CF93DF93DA01422F2D3118F078
S11321A082E090E05EC0ED018B876E83872F9927D4
S11321B08F832FB7F89433278091900190919101E8
S11321C02FBFFD018483892F992785832FB7F89426
S11321D0332780910E0190910F012FBF8887892F9B
S11321E0992789873196818129819927982F882772
S11321F0332720643868822B932B8983892F99276E
S11322008183435F4C934D5080911101882359F091
S113221010921101642FCD010E9438109927282FA4
S11322208823A9F417C0842F9927909321028093BF
S11322302002B0933601A093350184E10E948C0101
S113224080911101882349F489E090E00AC08FEF5E
S113225080931101822F992704C01092CF0180E04E
S113226090E0DF91CF91089510920901E0912F023F
S1132270F0913002309721F08091440380FF08C030
S113228081E080930901089589E00E948C010895FA
S113229020812D50332767817727762F6627868103
S11322A09927682B792BAF0183850E94CA10882354
S11322B059F70895CF93DF9380910901882391F40E
S11322C0C0912F02D0913002C617D70759F410924B
S11322D0300210922F020E943411C75ED14011F4D3
S11322E010921601DF91CF91089578941F920F9266
S11322F00FB60F9211242F923F924F925F926F92DA
S11323007F928F929F92AF92BF92CF92DF92EF9281
S1132310FF920F931F932F933F934F935F936F936A
S11323207F938F939F93AF93BF93CF93DF93EF9359
S1132330FF93C6B5D7B58FB7F894282E0E9415051C
S11323409B012C1B3D0B442755272B013C01421AB2
S1132350530A640A750A80913101909132018530E3
S1132360910521F0069709F0E0C0BFC086E090E037
S1132370909332018093310131E0332E3092880101
S11323801092330180E00E94ED05E0919401F091F8
S1132390950141AABB27A72D962D852D80ABC3019E
S11323A0AA27BB2787A7872D9927AA27BB2786A7F4
S11323B0E0919401F091950185A5882309F484C0E6
S11323C06081655077274F01860E971EF4012081A6
S11323D0E1808281A3809927AA27BB27BA2FA92F3E
S11323E0982F8827332744275527522F44273327EC
S11323F02227FF24002711278701FF24EE242E29FA
S11324003F29402B512BBB24CC24DD242A293B29F2
S11324104C295D29822B932BA42BB52B8419950968
S1132420A609B7098383292F3A2F4B2F55272283D7
S11324309D014427552721838B2F9927AA27BB2742
S11324408083C09824E0A40180E090E00E94F80D0D
S1132450C09AF4012081E1808281A3809927AA2770
S1132460BB27BA2FA92F982F88273327442755270E
S1132470522F442733272227FF24002711278701BF
S1132480FF24EE242E293F29402B512BBB24CC249E
S1132490DD242A293B294C295D29822B932BA42B4B
S11324A0B52B840D951DA61DB71D8383292F3A2FA7
S11324B04B2F552722839D014427552721838B2F9A
S11324C09927AA27BB278083E0919401F091950175
S11324D0818185FF02C030925D0183E00E94EC0E91
S11324E087B78F7E87BF84997AC01092880181E074
S11324F00E94ED05E0919401F0919501818185FFA1
S11325000FC087E090E090933201809331010E94E4
S1132510150520E031E040E050E00E94D20503C000
S113252080E00E94D50E849B5AC080913301882399
S113253091F580918801882371F511E01093880149
S11325400E94ED0580B320913D03283098F4E0917A
S11325504303E20FFF27E770F070EE0FFF1FEE0F4B
S1132560FF1FE751FD4F40825182628273822F5FC9
S113257020933D0310933301D093E601C093E5010A
S113258084992DC09927B4E096958795BA95E1F77B
S1132590182F117001C010E0809188018130F9F486
S11325A0109288010E94ED05109233011123B9F4B1
S11325B08091E5019091E601C81BD90B2A9778F424
S11325C080913D03882319F0815080933D038091CD
S11325D0940190919501009711F00E9486042FBEFA
S11325E0FF91EF91DF91CF91BF91AF919F918F9127
S11325F07F916F915F914F913F912F911F910F9117
S1132600FF90EF90DF90CF90BF90AF909F908F900E
S11326107F906F905F904F903F902F900F900FBEE0
S11326200F901F901895CF92DF92EF92FF920F9325
S11326301F93CFB6F894DD240E949504DC01CB01EE
S113264066E470E00E9449224BE0E42EF12CE80E8F
S1132650F91EF0924F03E0924E030E9415050027E5
S11326601127A80197010E94D205CFBE1F910F9197
S1132670FF90EF90DF90CF9008951F93CF93DF9357
S11326808FB7F894C82FDD271C2F809131019091CA
S113269032010897C9F489E00E944C0D83E00E943E
S11326A0EC0EC09A81E090E0909332018093310166
S11326B08FB7F894992723E020932B018FBF8CE0E8
S11326C00E948C01CFBF30C0C098809152038823F0
S11326D011F085E001C084E00E944C0D83FD09C027
S11326E080E00E944C0D83FF04C085E090E020E070
S11326F003C083E090E021E09093320180933101A4
S1132700C09A1FBF222341F01092430183E00E942C
S1132710EC0E0E94131308C00E94150520E431E05A
S113272040E050E00E94D205DF91CF911F910895BF
S1132730EF92FF920F931F93CF93DF938B018091BE
S1132740E3019091E40186FF40C18F7B8F3309F050
S11327508EC1C0913F01D0914001588150937C01BA
S113276080917A0190917B018530910509F443C0F1
S11327708630910509F48AC0029709F01FC185E0EB
S113278090E090937B0180937A0140915A01852FC8
S113279099270196242F3327281739074CF1B79925
S11327A006C00E9904C0451B415040935A01409104
S11327B07C014A32E8F44423A1F0BE016F5F7F4FED
S11327C0483018F047E050E007C086E090E090936E
S11327D07B0180937A01552780E090E00E94C90331
S11327E046C110928A01C09A84E00E94EC0EE3C0B4
S11327F00E946F0F3CC186E090E090937B01809330
S11328007A0180919301882309F439C08091CE0222
S11328108823A9F5898185FF32C08F814E812FB726
S1132820F89433276091DD017091DE012FBF992761
S1132830982F88275527842B952B8617970759F0AF
S11328408F812E819927982F88273327822B932BCA
S11328508F5F9F4FA1F489818770813081F4C09A82
S1132860C0988AE00E944C0DC09AC09840917C01A7
S113287047502896BE018FE30E94670DF8C040912F
S11328807C01475055272896BE01A6CFC09A809157
S11328908501882339F484E00E94EC0E809185013F
S11328A0882311F0B7990AC00E9B08C090913D038C
S11328B0992321F080917C018B3038F480913F0181
S11328C0909140010E9486043DC0913001F5E09151
S11328D04303FF27EE0FFF1FEE0FFF1FE751FD4FCE
S11328E02081318142815381E0913F01F091400187
S11328F021ABBB27A52F942F832F80ABCA01AA2716
S1132900BB2787A7252F33274427552726A7809140
S113291043039927019668E070E00E945D2280934A
S1132920430380913D03815080933D03882351F0FC
S113293080913F01909140010E94860410924303CC
S113294010923D0380917C01FE01E80FF11D80810E
S113295087FF31C0012B79F169816770E0913F01F4
S1132960F0914001623019F5A0919401B091950164
S1132970109709F180913101909132010797D9F4B0
S1132980ED019B8183819817B1F487B78F7E87BF50
S1132990908181E08CA7E90FF11D8291319688A77F
S11329A080818F7789A780E00E94D50E04C06130B2
S11329B011F483E12AC00E943A0F59C010928A018F
S11329C0C09A84E00E94EC0E52C08E3309F04FC0CE
S11329D0C09A80913101909132010897C9F4C0984E
S11329E089E00E944C0DC09A83E00E94EC0E81E0C5
S11329F090E090933201809331018FB7F894992736
S1132A0023E020932B018FBF8CE00E948C012FC008
S1132A1080915203882349F484E090E0909332013A
S1132A20809331010E943D1322C083E00E94EC0E8A
S1132A3083E090E090933201809331010E949504E9
S1132A40DC01CB0166E371E00E9449225BE0E52EE4
S1132A50F12CE80EF91EF0925501E09254010E9407
S1132A60150500271127A80197010E94D205DF91BF
S1132A70CF911F910F91FF90EF9008951F920F92A5
S1132A800FB60F9211242F933F934F935F936F933D
S1132A907F938F939F93AF93BF93EF93FF932FB144
S1132AA0E091BC02F091BD02309739F080912D0283
S1132AB090912E02E80FF91F208380912D029091AE
S1132AC02E02019690932E0280932D0280E00E94A4
S1132AD0F702409141015091420180912D02909161
S1132AE02E028417950718F40E945B031CC06091A2
S1132AF0BC027091BD028091490390914A031092E7
S1132B00BD021092BC0210924A0310924903109223
S1132B1042011092410110922E0210922D022FB107
S1132B2020E00E949813FF91EF91BF91AF919F9184
S1132B308F917F916F915F914F913F912F910F9062
S1132B400FBE0F901F9018958F929F92AF92BF92D5
S1132B50CF92DF92EF92FF920F931F93CF93DF9365
S1132B60CDB7DEB7A8970FB6F894DEBF0FBECDBFC2
S1132B70E82FFF27EC31F10510F00C94C81DEA5B37
S1132B80FF4FEE0FFF1F0590F491E02D0994809103
S1132B904403882311F40C94C81D40E051E0E2C1C1
S1132BA08FB7F89410924D032091C10240E0283071
S1132BB009F441E030E0293009F431E0442311F410
S1132BC0332351F01092C102E0913702FF27EE0F38
S1132BD0FF1FE55EFD4F108299278FBF442311F438
S1132BE0332331F19FB7F894809141038F5F809331
S1132BF041038091D801833479F420912602809195
S1132C002502821779F0822F8F5F80932602863007
S1132C1048F01092260206C0A0E0442309F4A1E083
S1132C2071E002C0A0E070E0892F99278FBF06C031
S1132C30222311F0FF246DC0A0E070E08FB7F89458
S1132C409927209119018FBF222341F08FB7F8945F
S1132C5099272AE02093C1028FBF42C08FB7F8940E
S1132C60992760911B0240911D028FBF8FB7F89482
S1132C70282F332750E0909125028091260298173F
S1132C8009F451E02FBF552341F5662331F55FB7B1
S1132C90F89482E080931B028FB7F894282F33278F
S1132CA040E09091250280912602981709F441E0B2
S1132CB02FBF442311F080E006C0E0912602FF27D5
S1132CC0EB5DFD4F828180931C0283E48093D801E5
S1132CD010923702852F99270EC04150423010F0D0
S1132CE0FF240CC08FB7F894992725E42093D801CA
S1132CF021E0209337028FBF01E0F02E772349F0C3
S1132D008FB7F8949927A09322018FBF84E00E9483
S1132D108C018FB7F894082F11278091C1028A3053
S1132D2019F40E949D06BBC20FBFFF2011F40C943E
S1132D30C81D2FB7F89433271092540310925303ED
S1132D401092D20181E08093C1022FBF0E94E3065A
S1132D50882311F40C94C81D8FB7F894992729E09F
S1132D602093C1028FBF0E9467040C94C81D56981B
S1132D7057981092BE0210928E01539A549A579A01
S1132D808FB7F89499271092C10210928B018FBFCC
S1132D9061E081E00E94C6028823E1F48FB7F894D1
S1132DA0282F332780912C0190912D01892B09F034
S1132DB0D7C081E090E090932D0180932C012FBF28
S1132DC0DD9A0E94150524E130E040E050E00E94C5
S1132DD0D205DEC662E081E00E94E002882309F0A9
S1132DE0D7C661E081E00E94E002D2C683E0FDC163
S1132DF053985498CDC610921F0110921E018FB79C
S1132E00F8949927C3C58FB7F8949927209127017F
S1132E103091280140915B018FBF8FB7F894E42F64
S1132E20FF27EE0FFF1FED5FFE4F318320832091BC
S1132E301A01442311F02B7F01C02D7F20931A0126
S1132E401092250199278FBFA3C680918001882302
S1132E5061F52091E5023091E6024091E70250913C
S1132E60E802EFB7F894FF276091C5027091C6029B
S1132E708091C7029091C802E0905601F0905701EA
S1132E8000915801109159016E0D7F1D801F911FF3
S1132E90EFBF2093E5023093E6024093E70250939C
S1132EA0E802109280010E9483060E94D20143C06E
S1132EB00E94D2015B016C018FB7F894992710929C
S1132EC024028FBFBFEFEB2EBFEFFB2EBFEF0B2F04
S1132ED0BFE71B2F60E0E9E3F2E0808581FF1CC0BF
S1132EE080819181A281B381A6019501281B390BB0
S1132EF04A0B5B0BDA01C901248135814681578174
S1132F00281B390B4A0B5B0B2E153F054007510755
S1132F101CF479018A0161E0399632E0E435F30763
S1132F20E1F6662309F434C61E141F0410061106C4
S1132F302CF0C601B5010E94330C2AC6E092E502CA
S1132F40F092E6020093E7021093E80281E0809396
S1132F508001A8019701C601B5010E94830618C625
S1132F602FBF16C690914403852F8923C1F0E42F07
S1132F70FF27EE0FFF1FE15DFD4F2081318111829C
S1132F801082852F8095982390934403442339F429
S1132F90275E314009F0F9C510921601F6C54F5F5E
S1132FA0483008F0F5C5550FDDCF10910901E12F28
S1132FB0FF27EE0FFF1FE15DFD4FE080F1801182DE
S1132FC010820E943411112309F0E2C557EEE51670
S1132FD051E0F50609F0DCC510921601D9C50FB70A
S1132FE0F894112781E00E94ED0561E0E62EF12CB2
S1132FF0F0923201E09231011092330110925D019E
S1133000109282010FBF0FB7F89411270E947A041F
S1133010F0927B01E0927A0110928A0189B78F7B4A
S113302089BF80E488BF8AB780628ABF8AB78F7EEF
S11330308ABF89B7806489BF0FBF8FB7F894082F00
S1133040112780912C0190912D01049719F483E0AC
S11330500E944C0D0FBF0FB7F8941127C09A80E05F
S11330600E94EC0E0FBF8FB7F894992722E02093AB
S1133070CA028FBF0E94D201AB01BC01EE240AEF49
S113308010E020E030E080E05EC58FB7F894992727
S11330901092CA027BC48FB7F8949927F0902B0141
S11330A08FBF63E081E00E94E002882359F10FB7EB
S11330B0F8941127109232011092310187B78F7E54
S11330C087BF87B78F7D87BF83E00E94EC0EC09ACD
S11330D00FBF0FB7F894112710927B0110927A0159
S11330E00E947A04C09A89B78F7B89BF0FBF109260
S11330F02D0110922C01DE98DD98DE9A8BE00E945F
S11331008C0107C08FB7F894992722E02093CA0254
S11331108FBF00912202109123020E94EA03809142
S1133120450390914603892B09F032C58FEF8093B4
S113313011014F2DB8018CC38FB7F894282F332772
S1133140122F80915003882309F00ACF81E08093E5
S1133150500380912C0190912D01049721F481E07A
S11331600E94E50C03C08EE00E948C011FBF10C5B5
S11331708FB7F89499271092500308C48FB7F89426
S1133180282F332780912E01882309F0E9CE2FBF01
S113319080B3992756E0969587955A95E1F7182FAD
S11331A011709091DF018091E0018917D9F019170E
S11331B0C9F484E090E090932D0180932C018FB7A3
S11331C0F894992721E020932E018FBF60E070E0EE
S11331D08DE10E94800F0E94390EC09AC0988AE047
S11331E00E948C011093E0018FE00E948C01D0C4F6
S11331F08FB7F894992710910A018FBF123009F400
S113320065C0133030F4112359F0113009F0C0C4F3
S113321048C0133009F474C0143009F0B9C4A0C014
S1133220C0988FB7F894082F112780912C019091A2
S11332302D010297A1F583E090E090932D018093F6
S11332402C0168E170E08DE10E94800F81E08093A1
S1133250DF0110922E0180B3992746E09695879559
S11332604A95E1F7817090708093E0018FE00E94AD
S11332708C0181E00E944C0D6FE772E08CE10E94AA
S1133280800F0E94E10F0E94A70F66E57AE287E1B2
S11332900E94800F6FEF70E885E10E94800F0FBFDE
S11332A077C4C09886E00E944C0D0E94E10F0E94F2
S11332B0A70F0E94390EC09AC09883E00E944C0D5B
S11332C0C09A81E00E94EC0E8EE08FCFC0988FB739
S11332D0F894082F112760E080E00E94E002882320
S11332E011F00FBF0AC00FBF83E50E944F0380E0B7
S11332F00E944F0380E00E944F03C09A82E02DC0D9
S11333008FB7F8949927209131018FBF243039F079
S1133310283041F0223001F50E94F20F39C40E9496
S11333203D1336C4C09889E00E944C0DC09A83E0D6
S11333300E94EC0E8FB7F894992721E030E0309387
S11333403201209331018FBF8FB7F89499271093DE
S11333502B018FBF8CE049CF83E00E94EC0E18C490
S11333600E94990D15C40FB7F8941127409141019B
S1133370509142016091BC027091BD028091490359
S113338090914A031092BD021092BC0210924A031B
S113339010924903109242011092410110922E02A0
S11333A010922D0220E00E94981379CF2FB7F89441
S11333B033278091860180930D0182E08093300150
S11333C02FBF80910D01882309F0E2C3B89AC098F9
S11333D080E10BCFA0913F01B0914001DC909D01B1
S11333E02D0D311DF9018081881F8827881FFD015B
S11333F083A7F90180818F77FD0181A72150304097
S1133400F9018081FD0180A7A0913F01B0914001A5
S1133410FD0132818FB7F8949927209184018FBFE1
S1133420222309F490C0832F992796958795969522
S11334308795837090708230910541F5878146812C
S11334402FB7F89433276091DD017091DE012FBF0F
S11334509927982F88275527842B952B861797070C
S113346019F481E090E06CC0FD018781268140E081
S113347050E09927982F88273327822B932B8F5F2F
S11334809F4F11F441E050E0CA015AC0039709F07C
S1133490B6C19E012F5F3F4F4FEC52E088E0FA0126
S11334A00190AF01F90101929F018150C1F79E0182
S11334B02F5D3F4FAE014F5F5F4F88E0FA010190EF
S11334C0AF01F90101929F018150C1F79E01275F6D
S11334D03F4FAE014F5D5F4F88E0FA010190AF01AD
S11334E0F90101929F018150C1F79E012F5E3F4F68
S11334F0AE01475F5F4F88E0FA010190AF01F90127
S113350001929F018150C1F79E01275E3F4FAE019A
S11335104F5E5F4F88E0FA010190AF01F90101921B
S11335209F018150C1F748E050E0BE01675E7F4FC4
S1133530CD0106960E94E822892B09F060C103C0E0
S1133540882309F45CC1FCE0FD1508F058C1E09043
S11335503F01F0904001F7012281822F992716E064
S1133560969587951A95E1F7039719F468E070E04A
S113357002C062E070E0822F992796958795969510
S1133580879583709070039719F488E090E002C0E7
S113359082E090E026E030E0E20EF31E40E050E0EE
S11335A020E030E0F701E80FF91F8AEF9FEFE80E03
S11335B0F91E05C08191480F511D2F5F3F4F2617FB
S11335C03707C4F3F70163818FEF809347038FB705
S11335D0F894782F20E030E0E8E4F1E080819181F4
S11335E08417950731F48281861709F4FEC020936D
S11335F047032F5F3F4F33962430310579F77FBF60
S1133600909147033FB7F8949F3F21F08091340194
S1133610891799F420913401822F9927FC01EE0F28
S1133620FF1FE80FF91FE85BFE4F5183408362835D
S11336302F5F2370209334010CC0892F9927FC013C
S1133640EE0FFF1FE80FF91FE85BFE4F5183408325
S11336506283832F99278FBF0FB7F8941127C7016F
S11336600E948202FC0190810FBFF70183A5882389
S113367009F4C1C09F3309F0BEC0878146812FB7CA
S1133680F894332760910E0170910F012FBF992791
S1133690982F88275527842B952B8617970761F039
S11336A0878126819927982F88273327822B932B6C
S11336B08F5F9F4F09F09FC0F7018385893809F018
S11336C09AC08FB7F89499272BB332E023272BBBEA
S11336D08FBFF5E1DF1609F08EC0F70184852585DB
S11336E09927982F88273327822B932B8093A30124
S11336F0892F99278093A201868527859927982F5A
S113370088273327822B932B8093A501892F992710
S11337108093A401808921899927982F88273327AA
S1133720822B932B8093A701892F99278093A6013D
S1133730828923899927982F88273327822B932BD3
S11337408093A901892F99278093A8018FEF8093F3
S11337509C0180939B0189E88093A10188E0809378
S11337609F0180911E0190911F01892B09F043C094
S11337702FB7F894332785E080932101109222011A
S113378086E991E090931D0180931C0182E090E012
S113379090931F0180931E01109224011092230123
S11337A084E1809320012FBF8FB7F894282F33270B
S11337B08091C1028A3011F42FBF19C02FBF9FB767
S11337C0F89480911D02882311F020E006C081E066
S11337D080931D0210921E0221E0892F99278FBF2A
S11337E0222329F00E94670406C07FBF04C0109200
S11337F01F0110921E01F0924001E0923F018FB729
S1133800F894992710928A018FBF0E943A0FC0C181
S11338109091CF0180911101981709F4B9C1909347
S113382011019923D1F40091350110913601609171
S11338302002C8010E943810482F5527442309F458
S1133840A7C18FEF8093110160913501709136010A
S1133850F80183850E945A119BC18FEF8093110157
S113386097C12FB7F89433278091D702809314011E
S113387083E0809338012FBF109114018FB7F8941F
S1133880282F3327922F80911501882359F4809192
S11338903E01833039F42FBF80913C01882309F025
S11338A077C102C09FBF74C182E080931F0210924F
S11338B042030E94F10381E080933C011093810153
S11338C067C10E940D0264C180913B01813009F0FF
S11338D05FC11D98159888E188CC8FB7F894C82EDD
S11338E080913E01833009F041C080911501882305
S11338F0E9F580915C01882309F032C12AC1ED2DDC
S1133900E695E695E695FF274D2D5527E45AFE4F9B
S11339109A012770307081E090E002C0880F991FEF
S11339202A95E2F7809520812823208300933D0186
S113393012C00F5F1F4F0130110511F400E010E0B9
S1133940D02E802F0E94F9018823C9F60E151F0579
S113395081F74FEF50E0409392018FEF8093150170
S113396081E080933E018AE10E948C01CFBE1092D7
S11339703B0180913A01813011F40E940D028FB70E
S1133980F894992710923A01109239015CCA109266
S11339903C01A0907E01B0907F018090CE01909078
S11339A081018FB7F894C82E80913801833009F0D3
S11339B041C0809114018915E9F58091380288236A
S11339C009F0DDC0D3C0ED2DE695E695E695FF2719
S11339D04D2D5527E85CFD4F9A012770307081E02A
S11339E090E002C0880F991F2A95E2F78095208104
S11339F0282320830093370112C00F5F1F4F01302B
S1133A00110511F400E010E0D02E802F0E946E0208
S1133A108823C9F60E151F0581F74FEF50E0409338
S1133A20D7028FEF8093140181E08093380185E100
S1133A300E948C01CFBE992009F0AAC020911701E1
S1133A40309118012F5F3F4F3093180120931701D5
S1133A5080911601882309F09BC0882D99278093B3
S1133A60F4011092F301A092F6018B2D9927809313
S1133A70F5012093F801832F99278093F701809112
S1133A800001909101018093FA01892F9927809375
S1133A90F90147EE51E082E08093ED011092EE01CE
S1133AA089E88093F20180912F0290913002892B52
S1133AB009F06EC05093300240932F0285E1809349
S1133AC0E701809109018823B1F01092090128E0EF
S1133AD062E070E089E80E94CA109927282F8823A1
S1133AE051F081E0809309011092300210922F026C
S1133AF0222309F04DC02FB7F89433278BB394E0F9
S1133B0089278BBB2FBF81E08093160141C02FB75B
S1133B10F8943327809192018093150183E0809378
S1133B203E012FBF80911501882391F5159A1D9AA6
S1133B300E94D201AB01BC0181E0E82E0AE010E052
S1133B4020E030E082E00E94B30122C010921F0204
S1133B501FC081E08093150110923E01379806CF73
S1133B6080913D01E82EFF248701E3CE81E080931C
S1133B701401109238018093390187E159CF809163
S1133B803701E82EFF24870138CF550F41E0EAC9F9
S1133B90A8960FB6F894DEBF0FBECDBFDF91CF91CC
S1133BA01F910F91FF90EF90DF90CF90BF90AF9057
S1133BB09F908F90089580913E038F3FB1F0282FFE
S1133BC03327F901E25AFE4F808180933E038F3FF1
S1133BD011F4809351038FEF80832F3F31F0822FB4
S1133BE00E94A41581E090E0089580E090E008959B
S1133BF0FF920F931F93CF93DF93CDB7DEB7E09778
S1133C000FB6F894DEBF0FBECDBFFFB6F8944CE1FB
S1133C1050E06FEF70E08EE591E00E94F5228FEFA7
S1133C2080933E038093510381E08EBD88E080BF82
S1133C3083E083BF8CB59DB54AE72CB53DB5281705
S1133C40390708F44150442311F0C901F6CF92B763
S1133C5082B78917E9F32CB53DB592B782B78917B6
S1133C60E9F38CB59DB5821B930B409665E0969560
S1133C7087956A95E1F79093400380933F0313BEC1
S1133C8083B78EBD8EB580BF12BE1DBC1CBC8FEF2A
S1133C9086BF86B780937C0080B799278770907021
S1133CA0892BD1F715BA8FEF84BBD498DC9816B85A
S1133CB01DBC1CBC87B7846087BF8EB5887F8460B9
S1133CC08EBD109289001092880080917D008460DE
S1133CD080937D0080918A00887F826080938A002F
S1133CE0D29AD19AD09ADA9AD99AD89A0E94DB1D9C
S1133CF08823E1F710925C01109238028FEF8093D1
S1133D008701E8E4F1E08FEF9FEF918380831282D3
S1133D10339621E0E435F207C1F70E9495046093DD
S1133D20DA0280910001909101010196AA27BB2734
S1133D308093CA019093CB01A093CC01B093CD01A1
S1133D4089E093E09093400180933F018E98B89A64
S1133D508C988FEF8093D7011092C9021092CA02F7
S1133D601092CB021092CC02B89AD69AD59A8FB7F9
S1133D70F894992720910E0130910F018FBF309351
S1133D80DE012093DD010E94F70629A73AA74BA77D
S1133D905CA76DA77EA78FA798ABDE019196FE0165
S1133DA0B99688E001900D928150E1F7DE015196B9
S1133DB0FE01B19688E001900D928150E1F7DE0199
S1133DC05996FE01719688E001900D928150E1F7B9
S1133DD0AFECB2E0FE01799688E001900D9281503B
S1133DE0E1F78091100199279093910180939001BC
S1133DF08FE18093C4028AE18093D8020E94F7067F
S1133E0029A73AA74BA75CA76DA77EA78FA798AB56
S1133E10DE019196FE01B99688E001900D928150E1
S1133E20E1F7DE011196FE01B19688E001900D9252
S1133E308150E1F7DE011996FE01319688E0019088
S1133E400D928150E1F7AFECB2E0FE01399688E0C3
S1133E5001900D928150E1F7AFECB2E0FD0137968D
S1133E609C9180818D939083319782E0E23DF807A5
S1133E70B9F781E080938401109248038093930101
S1133E801092CE0280B7886080BF8BE083BF86EE3D
S1133E9081BF87B7826087BF0E94000612E006E0F8
S1133EA060913F0370914003882799275CE0660F77
S1133EB0771F881F991F5A95D1F720E031EE40E013
S1133EC050E00E9470222150304029B9832F992755
S1133ED0809390001BB9009395001AB82093990021
S1133EE08093980010939B0000939D0010929A0079
S1133EF084E490E09093E1028093E00210921B022C
S1133F0010921D028AE08093C1021092D201109295
S1133F10D80110924103109254031092530310924B
S1133F204D03109237021092DC021092DB0284E0FF
S1133F3080938B011092C3021092E40210928F01BD
S1133F40109234021092330210922602109225022B
S1133F500E94DB1D8823E1F78F2D99278FBF78946A
S1133F608FB7F894282F3327922F8091C1028A307B
S1133F7031F080918B01843011F02FBF04C09FBFBA
S1133F8081E00E948C018FB7F894482F55274BC0CD
S1133F9087B7992783709070892B19F4E5E0F0E0D6
S1133FA013C080B7992787709070892BD1F781B798
S1133FB092B7891B8C3030F082B7853F18F4E3E068
S1133FC0F0E002C0E2E0F0E087B7887BC1F48091C2
S1133FD07D008B7FA1F46E9912C08AB190919A00F2
S1133FE0892B887161F48091740082FD08C0379B2D
S1133FF003C081E090E005C085E090E002C080E06D
S113400090E025B78E1708F4E82FFF27EC53FD4FF7
S1134010E491237E2062E22BE5BF78948895F8949E
S113402085B78F7D85BF80913E038F3F09F4B0CF64
S1134030282F3327F901E25AFE4F808180933E03F3
S11340408F3F11F4809351038FEF80832F3F09F446
S11340509FCF4FBF822F0E94A41595CF78941F92B3
S11340600F920FB60F9211241F932F933F934F93E8
S11340705F936F937F938F939F93AF93BF93EF93CC
S1134080FF9387B78F7E87BF78941FB7F89480918A
S1134090D3019091D401A091D501B091D60100979C
S11340A0A105B10509F051C080913101909132010F
S11340B08530910561F18630910530F483309105A6
S11340C049F0049781F51AC087309105F1F00897FB
S11340D051F514C0869B0FC084E090E090933201A8
S11340E0809331010E94150527E030E040E050E064
S11340F00E94D20518C00E94131315C00E943D0DE2
S1134100882389F40E943D130EC080E00AC089E030
S11341100E944C0D81E00E94ED0583E00E94EC0EAC
S113412087E00E94D50E80912C0190912D0101977A
S113413071F482E090E090932D0180932C01DE983D
S1134140DE9A80E00E94E50C02C00E943205812FB5
S113415099278FBFFF91EF91BF91AF919F918F915D
S11341607F916F915F914F913F912F911F910F908C
S11341700FBE0F901F901895ACE2B0E0E2ECF0E2B5
S11341800C94B122222E332E442E552E662E772ED9
S1134190882E992EFE013196A8E01192AA95E9F78E
S11341A029823A824B825C826D827E828F829886DB
S11341B0FE013996B8E01192BA95E9F7A986BA8654
S11341C0CB86DC86ED86FE860F87188B89819A81E3
S11341D0AB81BC8189A79AA7ABA7BCA77C018D0141
S11341E08FEF9FEFA0E0B0E0E822F9220A231B231F
S11341F089A59AA5ABA5BCA51D0144245524898590
S11342009A85AB85BC858DA39EA3AFA3B8A75C019B
S11342106D018FEF9FEFA0E0B0E0A822B922CA227F
S1134220DB228DA19EA1AFA1B8A53D0188249924CC
S1134230C801B701A60195010E94922269A37AA33D
S11342408BA39CA3C801B701A40193010E949222ED
S11342507B018C01C201B101A60195010E94922249
S11342605B016C01C201B101A40193010E9492227D
S11342703B014C01EA0CFB1C0C1D1D1D89A19AA1DC
S1134280ABA1BCA19D01442755272E0D3F1D401F06
S1134290511F2A153B054C055D0540F480E090E074
S11342A0A1E0B0E0680E791E8A1E9B1ECA01AA27EF
S11342B0BB27860D971DA81DB91D8D8F9E8FAF8FAF
S11342C0B8A3A9013327222789A19AA1ABA1BCA134
S11342D0A070B070280F391F4A1F5B1F298F3A8FB7
S11342E04B8F5C8FA98CBA8CCB8CDC8CED8CFE8CC8
S11342F00F8D18A1FE01719698E011929A95E9F735
S1134300ED8AFE8A0F8B188F2D813E814F8158854F
S11343106DA17EA18FA198A50E9492223B014C0120
S11343202D853E854F85588969A57AA58BA59CA5C1
S11343300E9492222D893E894F89588D260F371F5E
S1134340481F591F260D371D481D591D2D8B3E8BA7
S11343504F8B588F6D887E888F88988C2A2D3B2DA3
S11343604C2D5D2D662D772D882D992DE2E1AC968F
S11343700C94CD22A0E1B0E0E0ECF1E20C94B12287
S1134380222E332E442E552E662E772E882E992ECD
S1134390002309F466C088E0FE01319611928A95E3
S11343A0E9F729833A834B835C836D837E838F8211
S11343B09887E0E2E01B1E16CCF52D813E814F81EB
S11343C05885602F772767FD7095DA01C901062E9D
S11343D004C0B695A795979587950A94D2F78D87CB
S11343E09E87AF87B88B04C0220F331F441F551F0D
S11343F0EA95D2F789819A81AB81BC8104C0B695D4
S1134400A795979587956A95D2F7282B392B4A2B30
S11344105B2B29873A874B875C8729843A844B84B2
S11344205C846D847E848F8498881BC01D861E8660
S11344301F86188A2E2F332727FD30953095219516
S11344403F4F8D819E81AF81B88504C0B695A795F5
S1134450979587952A95D2F789879A87AB87BC87E2
S1134460DCCF222D332D442D552D662D772D882D0F
S1134470992DE2E160960C94CD22991B79E004C059
S1134480991F961708F0961B881F7A95C9F780958F
S11344900895AA1BBB1B51E107C0AA1FBB1FA61787
S11344A0B70710F0A61BB70B881F991F5A95A9F7D9
S11344B080959095BC01CD01089597FB092E0726A0
S11344C00AD077FD04D0E5DF06D000201AF47095F9
S11344D061957F4F0895F6F7909581959F4F0895C4
S11344E0A1E21A2EAA1BBB1BFD010DC0AA1FBB1FF4
S11344F0EE1FFF1FA217B307E407F50720F0A21B66
S1134500B30BE40BF50B661F771F881F991F1A94D2
S113451069F760957095809590959B01AC01BD01FC
S1134520CF010895629FD001739FF001829FE00D37
S1134530F11D649FE00DF11D929FF00D839FF00D1E
S1134540749FF00D659FF00D9927729FB00DE11DCA
S1134550F91F639FB00DE11DF91FBD01CF011124A7
S113456008952F923F924F925F926F927F928F9213
S11345709F92AF92BF92CF92DF92EF92FF920F93EE
S11345801F93CF93DF93CDB7DEB7CA1BDB0B0FB6F8
S1134590F894DEBF0FBECDBF09942A8839884888B5
S11345A05F846E847D848C849B84AA84B984C8844B
S11345B0DF80EE80FD800C811B81AA81B981CE0F42
S11345C0D11D0FB6F894DEBF0FBECDBFED01089527
S11345D0FB01DC0104C08D910190801921F441504C
S11345E05040C8F7881B990B0895DC0101C06D93F6
S10D45F041505040E0F70895FFCF5A
S11345FA0100FF54028802540201FFFFFFFF010079
S109460A22FFFFFF010185
S9030000FC
